:020000040800F2
:10000000C85801204903000845450008C12B0008D5
:10001000414500089D0900088F700008000000009D
:100020000000000000000000000000009102000835
:100030000925000800000000E50200082D60000806
:1000400063030008630300086303000863030008F8
:1000500063030008630300086303000863030008E8
:1000600063030008630300086303000863030008D8
:1000700063030008630300086303000863030008C8
:1000800063030008630300086303000863030008B8
:10009000A10A000863030008630300086303000863
:1000A0006303000863030008630300086303000898
:1000B00063030008630300084D620008630300083F
:1000C0006303000863030008630300086303000878
:1000D0006303000863030008630300086303000868
:1000E0006303000863030008630300086303000858
:1000F0006303000863030008630300086303000848
:100100006303000863030008630300086303000837
:100110006303000863030008630300086303000827
:100120006303000863030008630300086303000817
:100130006303000863030008630300086303000807
:10014000D11000086303000863030008630300087C
:10015000BD1F00086303000863030008B16B0008BB
:1001600063030008630300086303000863030008D7
:100170006303000863030008630300080000000035
:100180006303000863030008216B00086303000891
:1001900063030008630300086303000863030008A7
:1001A00000000000000000006303000800F002F8F7
:1001B00000F05EF80AA090E8000C82448344AAF1A3
:1001C0000107DA4501D100F053F8AFF2090EBAE8A1
:1001D0000F0013F0010F18BFFB1A43F0010318477B
:1001E00080EE0000A0EE00000A444FF0000C10F872
:1001F000013B13F0070408BF10F8014B1D1108BFA5
:1002000010F8015B641E05D010F8016B641E01F844
:10021000016BF9D113F0080F1EBF10F8014BAD1C94
:100220000C1B09D16D1E58BF01F801CBFAD505E0B2
:1002300014F8016B01F8016B6D1EF9D59142D6D30C
:10024000704700000023002400250026103A28BF34
:1002500078C1FBD8520728BF30C148BF0B60704738
:10026000002070471FB50EF0C8FB1FBD10B510BDB4
:1002700000F040FA1146FFF7F5FF0AF0FBFF00F02F
:100280005EFA03B4FFF7F2FF03BC08F060FC000065
:100290002A4B19680868B0E8F04F80F30988BFF36B
:1002A0006F8F4FF0000080F311887047000000004E
:1002B00006480068006880F3088862B661B6BFF33C
:1002C0004F8FBFF36F8F00DF00BF00BF08ED00E06E
:1002D000DFF80C00016841F470010160704700BF55
:1002E00088ED00E0EFF30980BFF36F8F134B1A68BE
:1002F0001EF0100F08BF20ED108A20E9F04F1060AB
:1003000008B44FF0500080F31188BFF34F8FBFF354
:100310006F8F0CF077FE4FF0000080F3118808BC5F
:1003200019680868B0E8F04F1EF0100F08BFB0EC75
:10033000108A80F30988BFF36F8F7047FC03002099
:10034000EFF30580704700000948804709480047DF
:10035000FEE7FEE7FEE7FEE7FEE7FEE7FEE7FEE775
:10036000FEE7FEE704480549054A064B70470000D2
:100370004D600008AD010008C8440120C8580120A4
:10038000C8540120C85401200FB4044910B503AA71
:10039000029800F02FF910BC5DF814FB2C0000202F
:1003A0002DE9F05F894604464FF0000ADFF824B1DA
:1003B000FB44C0F820A02046E168884700287DD093
:1003C000252806D0D4E901219047206A401C2062EC
:1003D000F1E700255F462046E16888472028064669
:1003E00007DB312E05D2B81910F8200C08B10543EF
:1003F000F1E7A80701D525F00405C4F81CA00027E3
:10040000C4F818A02A2E09D0304608F099FB38B35A
:1004100004EB8708303EC8F8186019E059F8041B4F
:10042000204604EB87029161E1688847012F064668
:1004300018D1E069002820DA25F020051DE0D8F861
:10044000180000EB800006EB40003038C8F81800B8
:100450002046E1688847064608F072FB0028EED186
:10046000012F0AD02E2E08D12046E16888477F1C34
:100470000646022F45F02005C4DBA069002803DAF8
:10048000404245F00105A061E80701D025F01005C4
:10049000A6B1A6F14100192802D8203645F400651E
:1004A0004A463146204625604D46FFF7D9FE60B1E9
:1004B000012807D0ED1D25F0070000E007E000F15E
:1004C000080978E705F1040975E730467AE7206AFC
:1004D000BDE8F09FB8EA0000032A40F2308010F037
:1004E000030C00F0158011F8013BBCF1020F6244CF
:1004F00098BF11F801CB00F8013B38BF11F8013B60
:10050000A2F1040298BF00F801CB38BF00F8013B0C
:1005100011F0030300F02580083AC0F0088051F87C
:10052000043B083A51F804CBA0E80810F5E7121D87
:100530005CBF51F8043B40F8043BAFF30080D207A6
:1005400024BF11F8013B11F801CB48BF11F8012B72
:1005500024BF00F8013B00F801CB48BF00F8012B95
:10056000704710B5203AC0F00B80B1E81850203A1F
:10057000A0E81850B1E81850A0E81850BFF4F5AF43
:100580005FEA027C24BFB1E81850A0E8185044BFCD
:1005900018C918C0BDE810405FEA827C24BF51F83A
:1005A000043B40F8043B08BF7047D20728BF31F82E
:1005B000023B48BF11F8012B28BF20F8023B48BF7F
:1005C00000F8012B704702F0FF0343EA032242EADE
:1005D000024200F023B870477047704710B500F032
:1005E0003DF8006810BD10B5044600F037F804600F
:1005F00010BD0000074B70B50D467B4400F037F886
:100600000446284600F046F810B14FF0FF3070BDA8
:10061000204670BD979700004FF000020429C0F0FB
:10062000128010F0030C00F03B80CCF1040CBCF104
:10063000020F18BF00F8012BA8BF20F8022BA1EB76
:100640000C0100F02DB85FEAC17C24BF00F8012B3B
:1006500000F8012B48BF00F8012B70470048704795
:100660006844012001694A1C02610878704700B59E
:100670008FB0CDE901310021059105497944CDE9DB
:10068000031011466846FFF78BFE0FB000BD000057
:10069000E5FFFFFF007B00F0800070474FF0000295
:1006A00000B5134694469646203922BFA0E80C5068
:1006B000A0E80C50B1F12001BFF4F7AF090728BF43
:1006C000A0E80C5048BF0CC05DF804EB890028BFBF
:1006D00040F8042B08BF704748BF20F8022B11F0E8
:1006E000804F18BF00F8012B70470000004870478A
:1006F000684401207546FFF7F9FFAE4605006946DC
:10070000534620F00700854618B020B5FFF72AFEB3
:10071000BDE820404FF000064FF000074FF0000802
:100720004FF0000B21F00701AC46ACE8C009ACE883
:10073000C009ACE8C009ACE8C0098D46704710B5E7
:100740000446AFF300802046BDE81040FFF799BD96
:1007500000EB8001524A02EB8101898800EB8002A4
:100760004F4B03EB8202D288891A09B200EB800258
:1007700003EB8202118100EB80011A4632F921104D
:1007800005290BDA00EB800132F9211011F1050F78
:1007900004DD002100EB800223F8221000EB800131
:1007A0003F4A32F92110002917DB00EB800102EBF0
:1007B0008101B1F9081011F10A0F0EDA00EB800186
:1007C00002EB8101098901F5005109B200EB8002B9
:1007D000334B03EB820211811CE000EB8001304AB5
:1007E00032F92110002915DA00EB800102EB8101BA
:1007F000B1F908100A290DDD00EB800102EB81013F
:100800000989A1F5005109B200EB8002244B03EBEA
:100810008202118100EB8001214A02EB8101B1F9D2
:100820000810204A32F91020891AB1F57A6F0FDDCD
:1008300000EB80011A4A02EB81010989A1F5005100
:1008400009B200EB8002164B03EB8202118126E015
:1008500000EB8001124A02EB8101B1F90810114A44
:1008600032F91020891A11F57A6F0FDA00EB800146
:100870000B4A02EB8101098901F5005109B200EB35
:100880008002074B03EB8202118108E000EB80013C
:10089000034A02EB81010989024A22F810107047CD
:1008A000480500203600002070B505460C4600269D
:1008B000A11E06480288284601F0BAFF0646A01E7F
:1008C0002E54310A601E295470BD0000980000208B
:1008D00070B505460C4600260DB1022C00D870BD3F
:1008E000611EFF22284601F0B9FF0646601E2E5405
:1008F00000BFF4E710B54FF4407003F061FE04F060
:1009000009FCA82009F0B4F94FF4E1300BF0DEFF48
:1009100002F05CFF05F044FC05F0CCFB09F048FA5E
:10092000002408E020460AF00BFE40F2C52009F042
:10093000E1F9601CC4B2042CF4DB00F031F801F0E2
:1009400099FA05F02DF854214FF6FF7008F020F9C0
:1009500005F078F903F088FD02F044FC02F088FB12
:1009600008F072F92C2004F05DFD05F05BFF00F04B
:1009700029FB0AF0E5FB0AF07BFB44F24F614F20B4
:1009800005F080FC02F010F90248B0F95400024969
:10099000086010BD480500200401002000BFFEE7EC
:1009A00000B58BB00121082004F036FF0121480674
:1009B00004F042FF09220021374801F011FF09220B
:1009C0000121354801F00CFF0320029002208DF830
:1009D0000C0000208DF80E0003208DF80D00012082
:1009E0008DF80F0002A92C4801F0B2FE14208DF8FA
:1009F000040001208DF8050000208DF8060001207C
:100A00008DF8070001A803F09FFD244800F0A8FC22
:100A100008A800F0E0FE00208DF826008DF82700E1
:100A20008DF828008DF829008DF82A0001208DF816
:100A30002B0000208DF822008DF8230005208DF872
:100A4000240007208DF825000320ADF8200008A918
:100A5000124800F0BEFD00208DF81A008DF81B0032
:100A600001208DF81C000020ADF81000ADF8120038
:100A7000ADF81400ADF81600ADF8180001208DF89F
:100A80001D0004A800F088FC01220221034800F0A8
:100A900097FD0BB000BD0000000C02400064004058
:100AA00000B585B00221E04800F0FAFC00287DD0B6
:100AB0000221DD4800F000FCDC49DB4800F0E0FBEF
:100AC0006A460021D84800F00EFE40F20622009847
:100AD000811A90426BD009DCA0F2012068B1012894
:100AE0003FD0022877D0032872D1A7E0052970D023
:100AF0000B296FD00C29F7D164E19DF80E109DF8F9
:100B00000D0001EB002000B2C9490880B1F90000D6
:100B100004210AF05DFAC6490880C6480078401CE6
:100B2000C449087008460078022819D100200870CE
:100B3000BF488088BE49C8809DF80C009DF80B1006
:100B400000EB012000B2BA4988800020FFF700FEC8
:100B5000B749B1F9080000210AF03AFAB44908810E
:100B60005FE19DF80E109DF80D0001EB002000B232
:100B7000AF498882B1F9140005210AF029FAAC497D
:100B80008882AC484078401CAA49487008464078A2
:100B900002281BD100204870A548018B41839DF895
:100BA0000C009DF80B1000EB012001E03AE1A0E001
:100BB00001B29F4801830120FFF7CAFD9C49B1F9AA
:100BC0001C0001210AF004FA9949888329E102E016
:100BD00026E16AE0B1E09DF80E109DF80D0001EBF2
:100BE000002000B292490885B1F9280006210AF0D8
:100BF000EFF98F4908858F488078401C8D498870AF
:100C000008468078022818D1002088708848818D95
:100C1000C1859DF80C009DF80B1000EB012001B27E
:100C2000834881850220FFF793FD8149B1F93000A7
:100C300002210AF0CDF97E490886F2E09DF80E10F7
:100C40009DF80D0001EB002000B279498887B1F9C9
:100C50003C0007210AF0BCF9754988877548C078BF
:100C6000401C7449C8700846C07802281CD1002076
:100C7000C8706F48B0F84010A0F842109DF80C0002
:100C80009DF80B1000EB012001B26948A0F840105C
:100C90000320FFF75DFD6649B1F9440003210AF026
:100CA00097F96349A1F84400BBE06148B0F85410DB
:100CB000A0F856109DF80C009DF80B1000EB0120D9
:100CC00001B25B48A0F854109DF80E109DF80D007D
:100CD00041EA002000B25649A1F850009DF81010DA
:100CE0009DF80F0001EB002001B25148A0F8601000
:100CF00097E04F48B0F87C10A0F87E109DF80C00EB
:100D00009DF80B1000EB012001B24948A0F87C10BF
:100D10009DF80E109DF80D0001EB002000B2444933
:100D2000A1F878009DF810109DF80F0001EB00204D
:100D300001B23F48A0F8881073E09DF80B109DF8B1
:100D40000C0001EB002000EE100AB8EEC00ADFED47
:100D50003A0A80EE201A394880ED001A9DF80D10ED
:100D60009DF80E0001EB002000EE100AB8EEC00A5C
:100D7000DFED310A80EE201A304880ED011A9DF82F
:100D80000F109DF8100001EB002000EE100AB8EEE5
:100D9000C00ADFED290A80EE201A284880ED021AE9
:100DA0009DF811109DF8120001EB002000EE100AD2
:100DB000B8EEC00ADFED200A80EE201A1F4880ED51
:100DC000031A2EE09DF80B109DF80C0001EB00209B
:100DD00000EE100AB8EEC00ADFED170A80EE201A06
:100DE000174880ED001A9DF80D109DF80E0001EBDC
:100DF000002000EE100AB8EEC00ADFED0F0A80EE08
:100E0000201A104880ED001A0D4890ED000A0D4898
:100E1000D0ED000A20EE200A0B4880ED000A00E029
:100E200000BF00BF05B000BD0064004008000032F4
:100E300048050020300000200000C842D4050020F2
:100E400044000020480000204000002070B586B01B
:100E5000044600254FF40470019000208DF80C002A
:100E60008DF80D0008208DF80E0020128DF80F006F
:100E70008DF8104001A9094800F0BDFC064600BFEE
:100E800001E0681C85B23146044800F047FD18B9FE
:100E900040F6FF708542F4DB06B070BD0064004090
:100EA0002DE9F04385B004460D4616461F464FF027
:100EB00000084FF40070009000208DF808008DF8B5
:100EC000090008208DF80A00200A8DF80B00E1B215
:100ED0008DF80C10290A8DF80D10E9B28DF80E105E
:100EE000310A8DF80F10F1B28DF81010390A8DF813
:100EF0001110F9B28DF8121069460B4800F07BFC16
:100F0000814600BF03E008F101001FFA80F849465E
:100F1000054800F003FD18B940F6FF708045F2DB8C
:100F200005B0BDE8F083000000640040F0B58BB070
:100F300005460E46002440F2FF20069000208DF862
:100F400020008DF8210008208DF82200290A06A82B
:100F5000C173057440F2FF10019000208DF80C0061
:100F60008DF80D0008208DF80E00310A8DF8111053
:100F70008DF8126006A9124800F03DFC074600BF3C
:100F800001E0601C84B239460D4800F0C7FC18B976
:100F900040F6FF708442F4DB01A9094800F02BFC05
:100FA0000746002401E0601C84B23946044800F082
:100FB000B5FC18B940F6FF708442F4DB0BB0F0BD0D
:100FC0000064004000B58BB00121022004F024FC35
:100FD0000121880604F030FC09220C213A4801F076
:100FE000FFFB09220D21384801F0FAFB09220B21F1
:100FF000354801F0F5FB4FF46050029002208DF867
:101000000C0000208DF80E0003208DF80D0001204B
:101010008DF80F0002A92C4801F09AFB40208DF8B2
:10102000040001208DF8050000208DF80600012045
:101030008DF8070001A803F087FA244800F090F922
:1010400008A800F0C8FB00208DF826008DF82700C6
:101050008DF828008DF829008DF82A0001208DF8E0
:101060002B0000208DF822008DF8230005208DF83C
:10107000240007208DF825000320ADF8200008A9E2
:10108000124800F0A6FA0E208DF81A0000208DF804
:101090001B0001208DF81C000020ADF81000ADF8F9
:1010A0001200ADF81400ADF81600ADF818000120DC
:1010B0008DF81D0004A800F06FF9012202210348F9
:1010C00000F07EFA0BB000BD000402400068004052
:1010D00000B585B00221394800F0E2F900286AD055
:1010E0000221364800F0E8F83549344800F0C8F8E5
:1010F0006A460021314800F0F6FA0098A0F201207B
:10110000F8B1012839D0092853D19DF80C009DF879
:101110000B1000EB012000B22A4988809DF80E10C8
:101120009DF80D0041EA002000B2264908809DF894
:1011300010109DF80F0001EB002000B22149088239
:1011400038E09DF80C009DF80B1000EB012001B277
:101150001C4801839DF80E109DF80D0001EB002046
:1011600000B2184988829DF810109DF80F0001EB1D
:10117000002001B2134881841CE09DF80C009DF80A
:101180000B1000EB012001B20E4881859DF80E1076
:101190009DF80D0001EB002000B20A4908859DF87A
:1011A00010109DF80F0001EB002001B205480187E7
:1011B00000E000BF00BF05B000BD000000680040B7
:1011C0000800003204060020F0B585B004460D4644
:1011D00000264FF40070009000208DF808008DF874
:1011E000090008208DF80A00200A8DF80B00E1B2F2
:1011F0008DF80C10290A8DF80D10E9B28DF80E103B
:101200006946094800F0F7FA074600BF01E0701C84
:1012100086B23946044800F081FB18B940F6FF70E9
:101220008642F4DB05B0F0BD0068004070B586B0C2
:101230000446002540F2FF20019000208DF80C00AC
:101240008DF80D0008208DF80E00210A8DF8111080
:101250008DF8124001A9094800F0CDFA064600BFFA
:1012600001E0681C85B23146044800F057FB18B90C
:1012700040F6FF708542F4DB06B070BD00680040A8
:1012800000220C4B994202D10023836111E0C1F38B
:10129000130201F000730BB1C2600AE001F0806339
:1012A0000BB1026105E001F000630BB1826000E068
:1012B000426070477000F030B1F5007F3AD00FDC2B
:1012C000202928D006DC01291CD004291DD008299A
:1012D00040D11DE0402921D0B1F5807F3AD126E0F0
:1012E000B1F5004F31D006DCB1F5806F25D0B1F5F6
:1012F000006F2FD124E0B1F5803F12D0B1F5003F4F
:1013000028D111E0154A826025E00822C26022E05F
:101310001022C2601FE0082202611CE0102202615C
:1013200019E00822426016E01022426013E0042215
:10133000426010E0042242600DE0042242600AE0B4
:10134000002282610422426005E0002282610422C0
:10135000426000E000BF00BF7047000001010100D3
:1013600010B504460B48844209D10121480604F017
:1013700073FA00214FF0007004F06EFA08E00121CA
:10138000880604F069FA00214FF0806004F064FAE6
:1013900010BD00000064004010B50021837A0122D6
:1013A00002FA03F13D4A126842F001023B4B1A6017
:1013B0003A4A1C3212688A43384B1C331A60027B4B
:1013C000CAB9364A0C3212688A43344B0C331A605D
:1013D0004288C38842EA0343304A4032847A42F862
:1013E00034300288838842EA03432C4A4032847AAC
:1013F00002EBC4025360027B012A19D1274A0C3246
:1014000012680A43254B0C331A604288038842EA6B
:101410000343224A4032847A42F83430C2888388B7
:1014200042EA03431D4A4032847A02EBC40253600D
:10143000C27A3AB9194A121D12688A43174B1B1D0A
:101440001A6006E0154A121D12680A43134B1B1D51
:101450001A60028932B9114A143212688A430F4B5A
:1014600014331A600289012A06D10C4A1432126818
:101470000A430A4B14331A60427B012A06D1074AF9
:101480001C3212680A43054B1C331A60034A126867
:1014900022F00102014B1A6010BD000000660040FE
:1014A00070B504460D46002660692840002871D0BA
:1014B000B5F5807F5CD010DC082D35D006DC012D21
:1014C00020D0022D24D0042D72D127E0102D31D050
:1014D000202D35D0402D6BD138E0B5F5004F60D0D0
:1014E00009DCB5F5007F49D0B5F5806F4CD0B5F576
:1014F000006F5DD14FE0B5F5803F2DD0B5F5003FD1
:1015000056D12FE0A0682D4900F0AAFC064651E014
:10151000E068032100F0A4FC06464BE0E0680821E7
:1015200000F09EFC064645E0E068102100F098FCC3
:1015300006463FE02069032100F092FC064639E0B0
:101540002069082100F08CFC064633E02069102158
:1015500000F086FC06462DE06068082100F080FC63
:10156000064627E06068102100F07AFC064621E07C
:10157000A069012100F074FC06461BE0A06902216D
:1015800000F06EFC064615E0A069042100F068FC3E
:1015900006460FE00FE0A069702100F061FC0646EE
:1015A00008E06068042100F05BFC064602E0FFE70B
:1015B000002600BF00E00026304670BD010101009A
:1015C0001AB143690B43436102E043698B434361B2
:1015D000704730B5024600200023146824F002044E
:1015E0001460146844F00104146000E05B1C54684B
:1015F00004F001041CB94FF6FF74A342F6D15468FD
:1016000004F001040CB900206CE08C79012C04D1A9
:10161000146844F08004146003E0146824F080042B
:101620001460CC79012C04D1146844F04004146097
:1016300003E0146824F0400414600C7A012C04D1F7
:10164000146844F02004146003E0146824F02004BB
:1016500014604C7A012C04D1146844F01004146016
:1016600003E0146824F0100414608C7A012C04D177
:10167000146844F00804146003E0146824F00804BB
:101680001460CC7A012C04D1146844F00404146072
:1016900003E0146824F0040414608C78A407CD7867
:1016A00044EA05640D7944EA05444D7944EA055459
:1016B0000D886D1E2C43D461146824F0010414605D
:1016C000002300E05B1C546804F001041CB14FF6D9
:1016D000FF74A342F6D1546804F001040CB1002059
:1016E00000E0012030BD10B500F5D87303EB011305
:1016F0001B6803F004031372137A53B900F5D8730F
:1017000003EB01131B6840F2FF7404EA53531360A8
:1017100009E000F5D87303EB01131B686FF0604418
:1017200004EAD303536000F5D87303EB01131B687D
:1017300003F00203537200F5D87303EB01135B68E7
:1017400003F00F03937200F5D87303EB01135B688A
:101750001B0AD37400F5D87303EB01139B68D37293
:1017600000F5D87303EB01139B681C0A147300F592
:10177000D87303EB01139B681C0C547300F5D873EA
:1017800003EB01139B681B0E937300F5D87303EBF7
:101790000113DB68D37300F5D87303EB0113DB6827
:1017A0001C0A147400F5D87303EB0113DB681C0CDE
:1017B000547400F5D87303EB0113DB681B0E9374AC
:1017C00021B9C36843F02003C36003E0036943F019
:1017D0002003036110BD00218171C171017241724A
:1017E0008172C1728170C170032101710221417146
:1017F00001210180704710B502460020936803F074
:101800008063B3F1806F00D110E0936803F0006350
:10181000B3F1006F01D1012008E0936803F0805319
:10182000B3F1805F01D1022000E00420042874D0CD
:1018300002F5C07303EB00131B6803F0010402F50B
:10184000C07303EB00131C600B7A7BB94B7A0C88D6
:1018500043EA445302F5C07404EB001424682343A4
:1018600002F5C07404EB0014236010E00B7A4C689E
:1018700043EAC4034C7A234302F5C07404EB00141A
:101880002468234302F5C07404EB001423608B7AB0
:1018900003F00F038B7202F5C07303EB00135B6858
:1018A00023F00F0402F5C07303EB00135C6002F534
:1018B000C07303EB00135B688C7A234302F5C0749A
:1018C00004EB001463608B7B1C064B7B44EA0344EF
:1018D0000B7B44EA0323CC7A234302F5C07404EB68
:1018E0000014A3608B7C1C064B7C44EA03440B7CF5
:1018F00044EA0323CC7B234302F5C07404EB0014B9
:10190000E36002F5C07303EB00131B6843F00104AE
:1019100002F5C07303EB00131C6010BD10B5024646
:10192000002321B1012907D002290FD109E09068D5
:101930001D4C00EA04030BE090681C4C00EA040311
:1019400006E090681A4C00EA040301E0002300BF9F
:1019500000BF184C181BA34216D007DC83B16FF0F0
:101960008060184470B1022818D111E0B0F5007FF2
:1019700010D0114C204448B1B0F5003F0ED10BE01F
:1019800002230DE000230BE0002309E0002307E021
:10199000012305E0012303E0012301E0002300BF50
:1019A00000BFD8B210BD000003000004000300080F
:1019B00000000310000100080001FFF73048007824
:1019C00070B3304890ED010AF3EE050AB4EEE00A78
:1019D000F1EE10FA05DD9FED2C0A2C4880ED000A8F
:1019E0004CE0284890ED010AF3EE030AB4EEE00A59
:1019F000F1EE10FA0EDD90ED010AF3EE050AB4EEF9
:101A0000E00AF1EE10FA05D29FED210A1F4880EDA1
:101A1000000A33E09FED1F0A1C4880ED000A2DE00C
:101A2000184890ED010AF3EE050AB4EEE00AF1EE73
:101A300010FA05DD9FED180A144880ED000A1DE03C
:101A4000104890ED010AF3EE030AB4EEE00AF1EE5D
:101A500010FA0EDD90ED010AF3EE050AB4EEE00A8D
:101A6000F1EE10FA05D29FED0B0A084880ED000A4E
:101A700004E09FED0A0A054880ED000A7047000067
:101A80002C030020D4050020B81E053F00020020D2
:101A9000F628DC3EA470BD3E14AEC73E0AD7A33E76
:101AA000AF48007800287DD0AE4890ED010AF3EEF3
:101AB000060AB4EEE00AF1EE10FA10DDAA4800685A
:101AC00068B99FEDAA0AAA4880ED000A9FEDA90A0D
:101AD000A94880ED000A0120A849086096E0A148C5
:101AE00090ED010AF3EE060AB4EEE00AF1EE10FA08
:101AF00002DD9D480068A8B99A4890ED010AF3EE0E
:101B0000030AB4EEE00AF1EE10FA19DD90ED010AD5
:101B1000F3EE060AB4EEE00AF1EE10FA10D8984897
:101B2000006868B99FED970A914880ED000A9FED23
:101B3000960A914880ED000A02209049086065E00D
:101B4000884890ED010AF3EE030AB4EEE00AF1EEE4
:101B500010FA0BDD90ED010AF3EE060AB4EEE00A8E
:101B6000F1EE10FA02D886480068A8B97D4890EDD9
:101B7000010AF3EE010AB4EEE00AF1EE10FA1BDD01
:101B800090ED010AF3EE030AB4EEE00AF1EE10FA6A
:101B900012D87E48006878B99FED7B0A744880EDC2
:101BA000000A00E07FE09FED7A0A734880ED000AAA
:101BB00003207249086029E06A4890ED010AF3EEBB
:101BC000010AB4EEE00AF1EE10FA0BDD90ED010A25
:101BD000F3EE030AB4EEE00AF1EE10FA02D86B4815
:101BE000006848B95F4890ED010AF3EE010AB4EECF
:101BF000E00AF1EE10FA09D89FED650A5C4880ED25
:101C0000000A9FED640A5C4880ED000A5B480068AA
:101C1000012806D160480068022802D101205249FB
:101C20000860504890ED010ADFED5C0AB4EEE00A6E
:101C3000F1EE10FA02DD00204B4908604F480068C1
:101C4000022806D154480068032802D101204C49DB
:101C50000860444890ED010ADFED510AB4EEE00A55
:101C6000F1EE10FA02DD00204549086043480068A3
:101C7000032806D148480068042802D101204349BE
:101C80000860384890ED010AF3EE020AB4EEE00A6B
:101C9000F1EE10FA02DD00203C4908603748006888
:101CA0003D4908605AE02F4890ED010AF3EE060A1C
:101CB000B4EEE00AF1EE10FA0ADD9FED3A0A2C4884
:101CC00080ED000A9FED370A2B4880ED000A45E0C1
:101CD000244890ED010AF3EE030AB4EEE00AF1EEB7
:101CE00010FA13DD90ED010AF3EE060AB4EEE00AF5
:101CF000F1EE10FA0AD29FED230A1D4880ED000A8A
:101D00009FED200A1C4880ED000A27E0154890ED61
:101D1000010AF3EE010AB4EEE00AF1EE10FA13DD67
:101D200090ED010AF3EE030AB4EEE00AF1EE10FAC8
:101D30000AD29FED150A0E4880ED000A9FED120AA7
:101D40000D4880ED000A09E09FED110A084880ED7A
:101D5000000A9FED0F0A084880ED000A7047000056
:101D60002C030020D4050020300200200080A24572
:101D70003C02002000E092454002002028020020A2
:101D80003402002000409C4500A08C453802002011
:101D900000007A4500C05A452C0200200000B441E2
:101DA0000000A44100E0AB4510B5FFF779FE03F059
:101DB00071FCFFF703FE234890ED010AF0EE400AA4
:101DC000B3EE060A204803F021FA204800780128E3
:101DD0000AD11F4890ED000ADFED1E0A30EE200AFE
:101DE0001D4880ED000A2CE01748D0ED0D0A1B4875
:101DF00090ED000AB7EE081A00EEC10A164880ED11
:101E0000000A90ED000A1248D0ED000AB4EEE00A94
:101E1000F1EE10FA05D890ED000A0F4880ED000AA7
:101E20000FE00D4890ED000A0C48D0ED000AB4EE2A
:101E3000E00AF1EE10FA04DB90ED000A064880EDAE
:101E4000000A10BDD405002008140020F401002071
:101E500000020020CDCC0C3F28030020FC01002014
:101E60000246002002EA01030BB1012000E000203D
:101E70007047000000B597B001214FF0401003F00B
:101E8000CBFC0121202003F0F7FC082209213D486A
:101E900000F0A6FC08220E213A4800F0A1FC4FF405
:101EA0008440159002208DF8580000208DF85A00CB
:101EB00003208DF8590000208DF85B0015A93148EA
:101EC00000F046FC304804F0BBFE4FF4E1301190C6
:101ED0000020ADF84800ADF84A00ADF84C000C20E9
:101EE000ADF84E000020ADF8500011A9264805F0CD
:101EF0005BF80121244804F08DFE01224021224894
:101F000004F094FE012240F224411F4805F026F817
:101F100047208DF8040001208DF8050003208DF87E
:101F2000060001208DF8070001A802F00DFB1748FC
:101F300000F09AF84FF0206002901348001D0390C3
:101F40001348049000200590C820069000200790B8
:101F50004FF480600890002009900A904FF4807040
:101F60000B9040020C9000200D900E900F9010905E
:101F700002A9064800F068F90121044800F068F859
:101F800017B000BD00180240001401404064024038
:101F9000920700200748C07A032803D10120064990
:101FA000087006E00348807A022802D10020024926
:101FB0000870704769070020F502002010B5084935
:101FC000084800F001F9012809D10549054800F049
:101FD0000BF80349034800F021F800F051FC10BD54
:101FE00000880020886402400246094B9A4201D2D0
:101FF000084801E00648103801F000531BB1064BB9
:102000000B40C36002E0044B0B408360704700004C
:1020100010640240006002407D0F7D0F0246094BB4
:102020009A4201D2084801E00648103801F00053F6
:102030001BB1064B0B40C36002E0044B0B408360B6
:102040007047000010640240006002407D0F7D0F69
:1020500021B1026842F00102026003E0026822F04E
:102060000102026070470000016821F00101016077
:102070000021016041608160C160016121214161F5
:102080004A49884204D13D21484A103A91608CE087
:1020900046491831884205D14FF47461434A103AD9
:1020A000916082E041493031884205D14FF474118A
:1020B0003E4A103A916078E03C494831884205D167
:1020C0004FF07461394A103A91606EE037496031DF
:1020D000884204D13649354A103AD16065E0334927
:1020E0007831884204D13349304A103AD1605CE0FB
:1020F0002E499031884204D12F492C4A103AD160A0
:1021000053E02A49A831884205D14FF03D51274A72
:10211000103AD16049E02949884204D13D21274A3B
:10212000083A116041E025491831884205D14FF441
:102130007461224A083A116037E020493031884200
:1021400005D14FF474111D4A083A11602DE01B4966
:102150004831884205D14FF07461184A083A11603D
:1021600023E016496031884204D11149134A121FF5
:1021700011601AE011497831884204D10D490F4AA3
:10218000121F116011E00D499031884204D10A49B3
:102190000A4A121F116008E00849A831884204D198
:1021A0004FF03D51054A121F116070471060024008
:1021B0003D000020400F002000003D201064024040
:1021C0000146486880B2704730B503460A46002091
:1021D00000240B4DAB4201D20A4901E008491039F5
:1021E00002F000550DB14C6800E00C68064D2C4023
:1021F00004EA02050DB1012000E0002030BD00001E
:1022000010640240006002407D0F7D0F10B501F0A8
:1022100080034BB122B1436943F08003436103E083
:10222000436923F08003436180290BD02AB10368FE
:1022300001F01E042343036004E0036801F01E0460
:10224000A343036010BD000010B500220268134BC9
:102250001A40CC680B6823434C6923438C692343A1
:10226000CC6923430C6A23434C6A23438C6A23437F
:102270004C6B23438C6B23431A430260426922F068
:102280000702D1E90B3423431A4342610B694360CF
:102290004B6883608B68C36010BD00003F801CF0FA
:1022A0004160704710B5944A1278D21D924B1A7053
:1022B000A0F2012212B1012A7ED1ACE08F4A8E4BEE
:1022C0001B78D25C8E4B1A708C4B8B4A1278521C46
:1022D0009A5C8B4B5A70894B874A1278921C9B5C94
:1022E000864C854A1278D21CA25C43EA0222844BB7
:1022F0005A802346804A1278121D9B5C7E4A1278CF
:10230000521DA25C43EA02227D4B9A8023467A4A00
:102310001278921D9B5C784A1278D21DA25C43EA27
:102320000222774BDA802346734A127808329B5C8C
:10233000714A12780932A25C43EA0222704B1A8178
:1023400023466D4A12780A329B5C6B4A12780B3234
:10235000A25C43EA02226A4B5A812346664A1278FB
:102360000C329B5C644A12780D32A25C43EA022272
:10237000634B9A812346604A12780E329B5C5E4A18
:1023800012780F32A25C43EA02225D4BDA812346C7
:10239000594A127810329B5C574A12781132A25C6B
:1023A00043EA0222564B1A822346534A12781232CB
:1023B0009B5C514A127800E09BE01332A25C43EA36
:1023C00002224F4B5A8223464B4A127814329B5CAE
:1023D000494A12781532A25C43EA0222484B9A829B
:1023E0002346454A127816329B5C434A12781732CC
:1023F000A25C43EA0222424BDA8223463E4A12782A
:1024000018329B5C3C4A12781932A25C43EA0222E1
:102410003B4B1A836EE0394A374B1B78D35C14462A
:10242000354A1278521CA25C43EA0222354B1A80CC
:102430002346314A1278921C9B5C2F4A1278D21C98
:10244000A25C43EA02232C4A1278121DA25C43EAE2
:102450000243294A1278521DA25C43EA0262294BC8
:102460005A802346244A1278921D9B5C224A127895
:10247000D21DA25C43EA022200EE102AB8EEC00A86
:1024800010EE102A1F4BDA6023461B4A12780832DE
:102490009B5C194A12780932A25C43EA0222194B6A
:1024A0009A802346144A12780A329B5C124A1278A8
:1024B0000B32A25C43EA0222124BDA8023460E4A18
:1024C00012780C329B5C0C4A12780D32A25C43EA03
:1024D00002220C4B1A812346074A12780E329B5C6B
:1024E000054A12780F32A25C43EA0222054B5A8158
:1024F00000E000BF00BF10BD840000209207002054
:10250000220900203D0900207047B0F90420B0F9ED
:102510000630D11A002901DB0A4600E04A42B2F532
:10252000805F1DDBB0F90410B0F9062091420BDA90
:10253000B0F9061041F6FF72511AB0F904201144A7
:10254000C2681144C16013E0B0F9041041F6FF7293
:10255000511AB0F906201144C268511AC16007E04F
:10256000B0F90410B0F90620891AC2681144C1609C
:10257000704700003348B0F9540001EE900AF8EEBD
:10258000E11AB0EE610A3048B0F9040001EE900A99
:10259000F8EEE11AF0EE610ADFED2C1AB0EE611AE6
:1025A000DFED2A1A2A48C0ED001ADFED2A1A70EE74
:1025B000611AB0EE611A2348B0F95400264909683F
:1025C000401AB0F57A6F05DD24480068401E2349A3
:1025D00008600DE01B48B0F954001F490968401A13
:1025E00010F57A6F04DA1D480068401C1B4908602A
:1025F0001A4800684FF4B471484301EE900AF8EEAF
:10260000E11AB7EE002A21EE022ADFED152A42EE8A
:10261000221A0F48C0ED001ADFED121A70EEE11A0F
:102620009FED0F2A61EE821AB7EE002A61EE821A40
:102630000D48C0ED001A0348B0F95400064908607F
:10264000704700004805002004060020000000003C
:10265000F40000200020B9450401002010010020F2
:102660000000343D0040B545F8000020C9200AF0C4
:102670001DFB1FE01048C07A022802D102F068FE5C
:1026800015E007F0F7FC0D48D0ED030AB0EE600A44
:1026900004F034FD0A4880ED000A0848D0ED050A30
:1026A000B0EE600A0648D0ED000A00F03FFA0120C3
:1026B0000AF0FCFADEE7000069070020F00C0020B9
:1026C000000100200AE00AF0D7F900F07BFA00F0E0
:1026D000B7FD01200AF0EAFA0AF0F8F9F3E7000082
:1026E00040F265100AF0E2FA1EE01048C07A0228B3
:1026F00002D102F02DFE14E0FFF756FB07F074F84C
:1027000007F000FA0A48D0ED021AB0EE611AD0EDD7
:10271000011AF0EE610AD0ED001AB0EE610A00F085
:10272000B3FD02200AF0C2FADFE7000069070020CB
:10273000F00C00204FF4D5700AF0B8FA07E009F069
:102740000DFD0AF079F84FF496700AF0AFFAF6E74B
:10275000F0B50A4600210023002400BF3DE001251A
:1027600005FA01F3156805EA03049C4234D10568B3
:102770004F000326BE40B543056015794E00B540B5
:102780000668354305601579012D02D01579022DB3
:1027900016D185684F000326BE40B5438560557944
:1027A0004E00B540866835438560456801268E40F9
:1027B000B5434560456896798E40B6B2354345606D
:1027C000C5684F000326BE40B543C560D5794E00AD
:1027D000B540C6683543C560491C1029BFD3F0BD5C
:1027E000F0B5002300244D07ED0E02FA05F3CE10DC
:1027F00000F1200555F826504E07F70E0F26BE4073
:10280000B543CF1000F1200646F82750CE1000F156
:10281000200555F8265045EA0304CE1000F12005A6
:1028200045F82640F0BD41837047018370470000A2
:1028300030B5034609E013F8014B82EA0400C0B248
:10284000054D35F8100080EA2222081EA1F1010191
:10285000F1D1104630BD000026EB000830B503462C
:1028600005E013F8010B80EA02040448025D081E2B
:10287000A1F10101F5D1104630BD000025EA0008A4
:1028800010B53C4800783B49497840EA0120C0F344
:102890000A003949088037484078C010354989789E
:1028A00040EA4110C0F30A0033494880314880783B
:1028B00080113049C97840EA81002E49097940EAFF
:1028C0008120C0F30A002C4988802A4800794010F2
:1028D0002849497940EAC110C0F30A002649C88056
:1028E0002448407900118008887222484079C0F35A
:1028F0000110C8721F4880791E49C97940EA012039
:1029000000B21D49C8811B48007A1A49497A40EA39
:10291000012001B2184801821648807A1549C97A07
:1029200040EA012001B2144841821248017B12485A
:1029300081751048417B1048C1750E48807B0D4958
:10294000C97B40EA01200C49A1F819000948007C24
:102950000849497C40EA012000B20749088100206B
:102960000649087004491931A1F10B0000F0A0FEDE
:1029700010BD0000500700206907002081000020E2
:1029800010B5044600204A49087089E04948484982
:102990000978405CA5287ED1464945480078401C0E
:1029A000095C444A42480078801C105C41EA0020DF
:1029B0004149A1F8030011463D480078C01C085C5D
:1029C0003D49487011463A480078001D085C3A4974
:1029D0008870114636480078401D095C34480078FC
:1029E000801D105C41EA00203349A1F80500114622
:1029F0002F4A12788818052104F0C8F82F4908706A
:102A00002D4AB2F8032002F109012A4A284B1B780B
:102A1000D01804F0ABF82A4908802748B0F8031012
:102A200023480078C01D08442249095C2248B0F8B8
:102A300003201F480078083010441E4A105C41EA09
:102A400000201D49A1F807000846B0F80300801DCA
:102A500017490978611A884200DD26E01549144AB1
:102A600012788818052104F031FB98B1124AB2F8A7
:102A7000032002F109010F4A0D4B1B78D01804F016
:102A800009FB38B10C4AB2F80310B2F80500FFF7A1
:102A900009FC00E009E006480078401C0449087081
:102AA00003480078A042FFF671AF00BF10BD0000E0
:102AB00084000020920700204D090020940000208F
:102AC0009600002070B50546134804F0D7FA134964
:102AD000087000241CE01248005DA42817D10020D3
:102AE000104908700DE00F48007820440C49085C3C
:102AF0000D490C4A127888540A480078401C09494C
:102B00000870084800780E28EDDB04F049F9641CD1
:102B1000AC42E0DB70BD00000078004028000020DF
:102B200070040020290000203805002010B52DED8C
:102B3000028BF0EE408AB0EE608AFFF71BFDB0EE2C
:102B4000680A02F01BFBB0EE480A04F0E5FA1148EF
:102B5000B0F9000010490880104890ED0D0AF7EE1A
:102B6000000A20EE200ABDEEC00A10EE100A00B2E4
:102B70000B4908800B48B0F900100748B0F9000075
:102B8000FEF7D4F90648B0F90000FEF74FFBBDECA4
:102B9000028B10BD0A0100200C0100200812002049
:102BA00008010020AC030020034890ED380A0348D8
:102BB00080ED000A7047000040060020DC00002085
:102BC00000BFFEE730B52DED028B95B09FEDFE0AFC
:102BD000B0EE408A00201290139014902422FB49FA
:102BE00009A8FDF7BEFC002006900790089003900E
:102BF0000490059000900190029008F045FB054676
:102C0000F348006858B1F2480068281A00EE100A2C
:102C1000F8EE400A9FEDEF1A80EE810A01E09FED89
:102C2000EE0AB0EE408AEA48056002F053FFEB4836
:102C30004078002873D1EA48006808B9E848056080
:102C4000E84890ED000AE548D0ED0B0A30EE200A86
:102C5000E44880ED000A90ED010AE048D0ED0C0A4E
:102C600030EE200ADF4880ED010A90ED020ADB48D1
:102C7000D0ED0D0A30EE200ADA4880ED020ADA487B
:102C80000088401CD8490880D5480068D7490844C6
:102C900085423FD9D348D0ED000AD348008800EEE2
:102CA000100AB8EE400A80EE801ACC4880ED171A60
:102CB000CC48D0ED010ACC48008800EE100AB8EEEE
:102CC000400A80EE801AC54880ED181AC548D0ED3C
:102CD000020AC548008800EE100AB8EE400A80EEED
:102CE000801ABE4880ED191A0020BF4908809FED68
:102CF000BA0ABC4880ED000A9FEDB70A80ED010AD0
:102D00009FEDB50A80ED020A0120B4494870002009
:102D1000B349086015B0BDEC028B30BDFFE7AF488A
:102D200090ED230AD0ED170A30EE600A8DED030A0C
:102D300090ED240AD0ED180A30EE600A8DED040AF9
:102D400090ED250AD0ED190A30EE600A8DED050AE6
:102D500090ED1A0AB1EE400A8DED060A90ED1B0ABD
:102D6000B1EE400A8DED070A90ED1C0AB1EE400A63
:102D70008DED080ADDED024AB0EE644ADDED014A50
:102D8000F0EE643ADDED004AB0EE643ADDED084A5B
:102D9000F1EE644AF0EE642ADDED074AF1EE644A92
:102DA000B0EE642ADDED064AF1EE644AF0EE641AF4
:102DB000DDED054AB0EE641ADDED044AF0EE640A7A
:102DC000DDED034AB0EE640AF0EE485A9FED885AF2
:102DD000F7EE004A01F068FD864890ED000A86484B
:102DE000D0ED000A30EE200A8448D0ED000A30EE23
:102DF000600A8348D0ED000A30EE600A8DED090AC2
:102E0000804890ED000A8048D0ED000A20EE200AAC
:102E10007E48D0ED000A7E4890ED001A00EE810A4F
:102E2000F0EE000A20EE200A8DED0A0A754890EDBA
:102E3000000A7748D0ED000A20EE200A7348D0ED52
:102E4000000A714890ED001A00EEC10AF0EE000A87
:102E500020EE200A8DED0B0A6A4890ED000A6A48C0
:102E6000D0ED000A20EE200A6848D0ED000A68483C
:102E700090ED001A00EEC10AF0EE000A20EE200AE2
:102E80008DED0C0A5B4890ED000A5B48D0ED000A1E
:102E900030EE600A5948D0ED000A30EE200A58485A
:102EA000D0ED000A30EE600A8DED0D0A564890ED27
:102EB000000A5748D0ED000A20EE200A5348D0ED12
:102EC000000A504890ED001A00EE810AF0EE000A68
:102ED00020EE200A8DED0E0A90ED000A4C48D0ED50
:102EE000000A20EE200A4948D0ED000A464890ED3D
:102EF000001A00EE810AF0EE000A20EE200A8DEDA5
:102F00000F0A90ED000A4248D0ED000A20EE200A98
:102F10003E48D0ED000A3B4890ED001A00EEC10A91
:102F2000F0EE000A20EE200A8DED100A314890EDF7
:102F3000000A3148D0ED000A30EE600A2F48D0ED8B
:102F4000000A30EE600A2E48D0ED000A30EE200A6A
:102F50008DED110A9DED111AF0EE410A9DED0E1A4C
:102F6000B0EE410A04F078FC8DED120ADDED0B0A9B
:102F7000B0EE600A04F06EF9B1EE400A8DED130A6E
:102F80009DED091AF0EE410A9DED0A1AB0EE410AD4
:102F900004F062FC8DED140A00240CE009A800EB9B
:102FA000840090ED000A0D48A43000EB840080ED11
:102FB000000A601CC4B2092CF0DB9DED120A074820
:102FC00080ED3D0A26E000000AD7233C48EE0008C9
:102FD000DC020020002474490000000040060020AC
:102FE000E0020020E40C0020E4020020C0C62D0016
:102FF000CDCC4C3D94020020A4020020B002002061
:10300000B8020020780200207C0200207402002018
:10301000800200209DED130A80ED3E0A9DED140A0A
:1030200080ED3F0A9DED120ADFED100A20EE200A26
:1030300080ED360A9DED130ADFED0C0A20EE200A22
:1030400080ED370A90ED240AD0ED180A30EE600AC0
:10305000DFED060A60EE208A9DED140ADFED030A1B
:1030600020EE200A80ED380A00BF53E6E12E6542CB
:1030700010B501205A49487053E0FFF7A3FD00F056
:10308000DFF84FF47A71032005F0E6FD4FF49670F7
:1030900006F010FE05F0D8FDC82006F00BFE4FF438
:1030A0007A71052005F0D8FD322006F003FE05F008
:1030B000CBFDC82006F0FEFD4FF47A71062005F026
:1030C000CBFD322006F0F6FD05F0BEFDC82006F06F
:1030D000F1FD4FF47A71032005F0BEFD322006F0B9
:1030E000E9FD05F0B1FDC82006F0E4FD4FF47A716A
:1030F000032005F0B1FD322006F0DCFD05F0A4FD53
:10310000C82006F0D7FD4FF47A71052005F0A4FD24
:10311000322006F0CFFD05F097FD4FF4FA6006F07F
:10312000C9FD2F48B0F90C0141F288318842A4DB77
:103130002B48B0F90C01884240DB4900012005F022
:103140008BFD322006F0B6FD05F07EFDC82006F0AE
:10315000B1FD42F21071022005F07EFD322006F032
:10316000A9FD05F071FDC82006F0A4FD42F2107122
:10317000032005F071FD322006F09CFD05F064FD92
:10318000C82006F097FD42F21071042005F064FD9E
:10319000322006F08FFD05F057FDC82006F08AFDAD
:1031A00042F21071052005F057FD322006F082FD35
:1031B00005F04AFD4FF4FA6006F07CFD0020084956
:1031C000487003E0FFF7FEFC00F03AF8044890ED89
:1031D000180AB5EEC00AF1EE10FAF3D010BD0000E7
:1031E0004006002010B5002013494870F3EE0E0A87
:1031F0009FED120A00F0BCFDF3EE0E0A9FED0F0AE0
:1032000000F03EFEF3EE0E0A9FED0C0A00F0C0FE49
:10321000F3EE0E0A9FED090A00F042FFF3EE0E0AEC
:103220009FED060A00F0C4FFF3EE0E0A9FED030ABD
:1032300001F046F810BD0000400600200000FA43EF
:103240000F48B0F80C0142F22832101A01B2B1F561
:10325000FA7F0FDA01EB8102323210B2B0F5167F3D
:1032600002DD4FF4167002E0002800DA0020054A63
:10327000106003E040F2E730024A1060704700003F
:10328000400600203804004030B52DED108B87B08B
:10329000F0EE408AB0EE60FAB0EE418A0024F749C1
:1032A000B1F9541001F6DC00C11700EBD14149130C
:1032B000A0EB413100EE101AB8EEC00ADFEDF00AC3
:1032C00080EE201AEF4981ED031A084690ED030ABB
:1032D000DFEDED0AB4EEE00AF1EE10FA0CDD90ED50
:1032E000030ADFEDE90A30EE600ADFEDE80A20EEBE
:1032F000200A80ED030A08E0E24890ED030ADFEDC2
:10330000E30A20EE200A80ED030ADE4890ED030A6E
:1033100010EE101A08460BF0FFFA41EC1E0BB0EE4F
:103320004E0AF0EE6E0A04F007FDB0EE40CAF0EE71
:1033300060CAD74890ED010A10EE101A08460BF04B
:10334000EBFA41EC1D0B53EC1C2B0AF0EFFF41ECA8
:103350001A0BCC4890ED030A10EE101A08460BF039
:10336000DBFA41EC1E0BB0EE4E0AF0EE6E0A04F0F2
:10337000CBFBB0EE40CAF0EE60CAC54890ED000A43
:1033800010EE101A08460BF0C7FA41EC1D0B53EC77
:103390001C2B0AF0CBFF41EC1B0B53EC1A2B0AF051
:1033A000E7FC41EC190B0AF02BFF00B2B54948804D
:1033B000084690ED030A10EE101A08460BF0ACFA1E
:1033C00041EC1E0BB0EE4E0AF0EE6E0A04F09CFBD0
:1033D000B0EE40CAF0EE60CAAD4890ED010A10EEC2
:1033E000101A08460BF098FA41EC1D0B53EC1C2BFD
:1033F0000AF09CFF41EC1A0BA24890ED030A10EE74
:10340000101A08460BF088FA41EC1E0BB0EE4E0A7B
:10341000F0EE6E0A04F090FCB0EE40CAF0EE60CA26
:103420009B4890ED000AB1EE400A10EE101A0846D3
:103430000BF072FA41EC1D0B53EC1C2B0AF076FFDB
:1034400041EC1B0B53EC1A2B0AF092FC41EC190BCC
:103450000AF0D6FE00B28B49C8800846B0F90600D3
:10346000B1F90210401A00EE100AB8EEC00ADFED02
:10347000890A00EE880A9FED881AC0EE010A874883
:1034800090ED000A20EE800A8DED030A7D48B0F928
:1034900006007C49B1F90210084400EE100AB8EEAB
:1034A000C00ADFED7C0A00EE880ADFED7B0A80EEC1
:1034B000201A7A4890ED000A21EE000A8DED040AE8
:1034C0007048B0F9060040426E49B1F90210084454
:1034D00000EE100AB8EEC00ADFED6E0A00EE880AB0
:1034E0009FED6D1AC0EE010A6C4890ED000A20EEC7
:1034F000800A8DED050A6348B0F906004042614933
:10350000B1F90210401A00EE100AB8EEC00ADFED61
:10351000610A00EE880A9FED601AC0EE010A5F485A
:1035200090ED000A20EE800A8DED060A00241AE0D4
:1035300003A800EB840090ED000AF2EE0C0A60EEA6
:10354000200A9FED571A80EE810ADFED560A20EE21
:10355000200ABDEEC00A10EE100A00B201A921F83F
:103560001400601CC4B2042CE2DB00245BE001A860
:1035700030F91400B0F5D75F25DD002001A931F93D
:10358000141000EE901AF8EEE00A9FED471AC0EE14
:10359000811AB0EE610A00BF12E001A931F91010E2
:1035A00000EE901AF8EEE00A80EE801AFDEEC10AF5
:1035B00010EE901A09B201AA22F81010411CC8B2EC
:1035C0000428EADB2DE001A830F9140010F5D75FDC
:1035D00027DA002001A931F9141000EE901AF8EE54
:1035E000E00AF1EE600A9FED301AC0EE811AB0EEEB
:1035F000610A00BF12E001A931F9101000EE901A23
:10360000F8EEE00A80EE801AFDEEC10A10EE901A84
:1036100009B201AA22F81010411CC8B20428EADB42
:1036200000BF601CC4B2042CA1DBBDF90A30BDF997
:103630000820BDF90610BDF9040007F047FE1B4D38
:1036400095ED6D0ABDEEC00A10EE103A95ED4D0AEB
:10365000BDEEC00A10EE102A95ED2D0ABDEEC00A8F
:1036600010EE101A95ED0D0ABDEEC00A10EE100A0C
:10367000FDF716FC07B0BDEC108B30BD48050020EF
:10368000610BB641900C00200000B44303FA8E3C5D
:10369000F00C002000400F44000098422803002056
:1036A000DA0FC940000070420000D745080F002023
:1036B0000A7802F0010212B101228A7008E00A7849
:1036C00002F0020212B1FF228A7001E000228A7029
:1036D0000A7802F0080212B10122CA7008E00A78E2
:1036E00002F0040212B1FF22CA7001E00022CA7087
:1036F0000A7802F0400212B101220A7101E00022B0
:103700000A710A7802F0800212B101224A7101E0C6
:1037100000224A710A8802F4807212B101228A7171
:1037200001E000228A710A8802F4007212B10122BB
:10373000CA7101E00022CA710A8802F4806212B1E3
:1037400001220A7201E000220A720A8802F4006271
:1037500012B101224A7201E000224A720A8802F480
:10376000805212B101228A7201E000228A720A8814
:1037700002F4005212B10122CA7201E00022CA72A0
:103780000A8802F4804212B101220A7301E0002289
:103790000A730A8802F4004212B101224A7301E05E
:1037A00000224A730A7802F0100212B101228A73D1
:1037B00001E000228A730A7802F0200212B101228D
:1037C000CA7301E00022CA73704700001CB50121D2
:1037D000102002F021F80121202002F01DF84FF402
:1037E0000060009001208DF8040000208DF8060094
:1037F00003208DF8050001208DF8070069460A486E
:10380000FEF7A6FF4FF400610748FFF70EF84FF4EC
:103810008040009069460548FEF79AFF4FF48041CA
:103820000248FFF702F81CBD0010024000140240DD
:1038300010B52DED048BF0EE408A9FED2C0AB0EE12
:10384000408A9FED2A0AB0EE409A294890ED000A7E
:10385000B5EEC00AF1EE10FA04D8B0EE680ABDEC7D
:10386000048B10BDB0EE680A2248D0ED000A224851
:1038700090ED001A00EEC10A2048D0ED000A204861
:1038800090ED001A00EEC10AB0EE408A18EE100A60
:1038900003F0D9FC20B918EE100A03F0CAFC08B1F5
:1038A000B0EE688A174890ED000A28EE000A114829
:1038B000D0ED000A144890ED001A00EE810A0F487E
:1038C000D0ED000A114890ED001A00EE810AB0EE2A
:1038D000409A084890ED000A084880ED000A054823
:1038E00080ED008AB0EE490AB9E700000000000050
:1038F0002001002038010020240100203C0100208C
:10390000280100202C01002030010020340100207B
:1039100010B52DED048BF0EE408A9FED2C0AB0EE31
:10392000408A9FED2A0AB0EE409A294890ED000A9D
:10393000B5EEC00AF1EE10FA04D8B0EE680ABDEC9C
:10394000048B10BDB0EE680A2248D0ED000A224870
:1039500090ED001A00EEC10A2048D0ED000A204880
:1039600090ED001A00EEC10AB0EE408A18EE100A7F
:1039700003F069FC20B918EE100A03F05AFC08B1F4
:10398000B0EE688A174890ED000A28EE000A114848
:10399000D0ED000A144890ED001A00EE810A0F489D
:1039A000D0ED000A114890ED001A00EE810AB0EE49
:1039B000409A084890ED000A084880ED000A054842
:1039C00080ED008AB0EE490AB9E70000000000006F
:1039D0004001002058010020440100205C0100202B
:1039E000480100204C01002050010020540100201B
:1039F00010B52DED048BF0EE408A9FED2C0AB0EE51
:103A0000408A9FED2A0AB0EE409A294890ED000ABC
:103A1000B5EEC00AF1EE10FA04D8B0EE680ABDECBB
:103A2000048B10BDB0EE680A2248D0ED000A22488F
:103A300090ED001A00EEC10A2048D0ED000A20489F
:103A400090ED001A00EEC10AB0EE408A18EE100A9E
:103A500003F0F9FB20B918EE100A03F0EAFB08B1F5
:103A6000B0EE688A174890ED000A28EE000A114867
:103A7000D0ED000A144890ED001A00EE810A0F48BC
:103A8000D0ED000A114890ED001A00EE810AB0EE68
:103A9000409A084890ED000A084880ED000A054861
:103AA00080ED008AB0EE490AB9E70000000000008E
:103AB0006001002078010020640100207C010020CA
:103AC000680100206C0100207001002074010020BA
:103AD00010B52DED048BF0EE408A9FED2C0AB0EE70
:103AE000408A9FED2A0AB0EE409A294890ED000ADC
:103AF000B5EEC00AF1EE10FA04D8B0EE680ABDECDB
:103B0000048B10BDB0EE680A2248D0ED000A2248AE
:103B100090ED001A00EEC10A2048D0ED000A2048BE
:103B200090ED001A00EEC10AB0EE408A18EE100ABD
:103B300003F089FB20B918EE100A03F07AFB08B1F4
:103B4000B0EE688A174890ED000A28EE000A114886
:103B5000D0ED000A144890ED001A00EE810A0F48DB
:103B6000D0ED000A114890ED001A00EE810AB0EE87
:103B7000409A084890ED000A084880ED000A054880
:103B800080ED008AB0EE490AB9E7000000000000AD
:103B90008001002098010020840100209C01002069
:103BA000880100208C010020900100209401002059
:103BB00010B52DED048BF0EE408A9FED2C0AB0EE8F
:103BC000408A9FED2A0AB0EE409A294890ED000AFB
:103BD000B5EEC00AF1EE10FA04D8B0EE680ABDECFA
:103BE000048B10BDB0EE680A2248D0ED000A2248CE
:103BF00090ED001A00EEC10A2048D0ED000A2048DE
:103C000090ED001A00EEC10AB0EE408A18EE100ADC
:103C100003F019FB20B918EE100A03F00AFB08B1F3
:103C2000B0EE688A174890ED000A28EE000A1148A5
:103C3000D0ED000A144890ED001A00EE810A0F48FA
:103C4000D0ED000A114890ED001A00EE810AB0EEA6
:103C5000409A084890ED000A084880ED000A05489F
:103C600080ED008AB0EE490AB9E7000000000000CC
:103C7000A0010020B8010020A4010020BC01002008
:103C8000A8010020AC010020B0010020B4010020F8
:103C900010B52DED048BF0EE408A9FED2C0AB0EEAE
:103CA000408A9FED2A0AB0EE409A294890ED000A1A
:103CB000B5EEC00AF1EE10FA04D8B0EE680ABDEC19
:103CC000048B10BDB0EE680A2248D0ED000A2248ED
:103CD00090ED001A00EEC10A2048D0ED000A2048FD
:103CE00090ED001A00EEC10AB0EE408A18EE100AFC
:103CF00003F0A9FA20B918EE100A03F09AFA08B1F5
:103D0000B0EE688A174890ED000A28EE000A1148C4
:103D1000D0ED000A144890ED001A00EE810A0F4819
:103D2000D0ED000A114890ED001A00EE810AB0EEC5
:103D3000409A084890ED000A084880ED000A0548BE
:103D400080ED008AB0EE490AB9E7000000000000EB
:103D5000C0010020D8010020C4010020DC010020A7
:103D6000C8010020CC010020D0010020D401002097
:103D700010B52DED068BF0EE409AF0EE608A9FEDC7
:103D8000370AB0EE40AA9FED350AB0EE408A9FEDAB
:103D9000330AB0EE409A89EEA80AB0EE40AA9FED31
:103DA000300AC0EE0A0AF0EE60AAB0EE6A0A04F029
:103DB0002DF9B0EE408A9FED2B0A03F009FFF0EEDB
:103DC000000A60EE200AB7EE000A00EE880A08EE4C
:103DD000080AB0EE409A2448C0ED008A90ED000A2F
:103DE000B5EEC00AF1EE10FA35DD28EE080AC0EE95
:103DF000090A1E48C0ED000A90ED000AF0EE000A24
:103E000020EE200A1A4880ED000A184890ED000ABA
:103E1000184880ED000AB7EE000A18EE080AF0EE26
:103E2000000A20EE200AC0EE090A1348C0ED000A7D
:103E30009FED0C0A03F0CCFEF0EE000A60EE200AC3
:103E4000B7EE000A00EEC80A08EE080AC0EE090A3A
:103E50000A48C0ED000ABDEC068B10BD0000000052
:103E6000DA0F4940DA0F493F200100202C010020E1
:103E7000300100203401002024010020280100200E
:103E800010B52DED068BF0EE409AF0EE608A9FEDB6
:103E9000370AB0EE40AA9FED350AB0EE408A9FED9A
:103EA000330AB0EE409A89EEA80AB0EE40AA9FED20
:103EB000300AC0EE0A0AF0EE60AAB0EE6A0A04F018
:103EC000A5F8B0EE408A9FED2B0A03F081FEF0EEDC
:103ED000000A60EE200AB7EE000A00EE880A08EE3B
:103EE000080AB0EE409A2448C0ED008A90ED000A1E
:103EF000B5EEC00AF1EE10FA35DD28EE080AC0EE84
:103F0000090A1E48C0ED000A90ED000AF0EE000A12
:103F100020EE200A1A4880ED000A184890ED000AA9
:103F2000184880ED000AB7EE000A18EE080AF0EE15
:103F3000000A20EE200AC0EE090A1348C0ED000A6C
:103F40009FED0C0A03F044FEF0EE000A60EE200A3A
:103F5000B7EE000A00EEC80A08EE080AC0EE090A29
:103F60000A48C0ED000ABDEC068B10BD0000000041
:103F7000DA0F4940DA0F493F400100204C01002090
:103F8000500100205401002044010020480100207D
:103F900010B52DED068BF0EE409AF0EE608A9FEDA5
:103FA000370AB0EE40AA9FED350AB0EE408A9FED89
:103FB000330AB0EE409A89EEA80AB0EE40AA9FED0F
:103FC000300AC0EE0A0AF0EE60AAB0EE6A0A04F007
:103FD0001DF8B0EE408A9FED2B0A03F0F9FDF0EEDC
:103FE000000A60EE200AB7EE000A00EE880A08EE2A
:103FF000080AB0EE409A2448C0ED008A90ED000A0D
:10400000B5EEC00AF1EE10FA35DD28EE080AC0EE72
:10401000090A1E48C0ED000A90ED000AF0EE000A01
:1040200020EE200A1A4880ED000A184890ED000A98
:10403000184880ED000AB7EE000A18EE080AF0EE04
:10404000000A20EE200AC0EE090A1348C0ED000A5B
:104050009FED0C0A03F0BCFDF0EE000A60EE200AB2
:10406000B7EE000A00EEC80A08EE080AC0EE090A18
:104070000A48C0ED000ABDEC068B10BD0000000030
:10408000DA0F4940DA0F493F600100206C0100203F
:1040900070010020740100206401002068010020EC
:1040A00010B52DED068BF0EE409AF0EE608A9FED94
:1040B000370AB0EE40AA9FED350AB0EE408A9FED78
:1040C000330AB0EE409A89EEA80AB0EE40AA9FEDFE
:1040D000300AC0EE0A0AF0EE60AAB0EE6A0A03F0F7
:1040E00095FFB0EE408A9FED2B0A03F071FDF0EED4
:1040F000000A60EE200AB7EE000A00EE880A08EE19
:10410000080AB0EE409A2448C0ED008A90ED000AFB
:10411000B5EEC00AF1EE10FA35DD28EE080AC0EE61
:10412000090A1E48C0ED000A90ED000AF0EE000AF0
:1041300020EE200A1A4880ED000A184890ED000A87
:10414000184880ED000AB7EE000A18EE080AF0EEF3
:10415000000A20EE200AC0EE090A1348C0ED000A4A
:104160009FED0C0A03F034FDF0EE000A60EE200A29
:10417000B7EE000A00EEC80A08EE080AC0EE090A07
:104180000A48C0ED000ABDEC068B10BD000000001F
:10419000DA0F4940DA0F493F800100208C010020EE
:1041A000900100209401002084010020880100205B
:1041B00010B52DED068BF0EE409AF0EE608A9FED83
:1041C000370AB0EE40AA9FED350AB0EE408A9FED67
:1041D000330AB0EE409A89EEA80AB0EE40AA9FEDED
:1041E000300AC0EE0A0AF0EE60AAB0EE6A0A03F0E6
:1041F0000DFFB0EE408A9FED2B0A03F0E9FCF0EED4
:10420000000A60EE200AB7EE000A00EE880A08EE07
:10421000080AB0EE409A2448C0ED008A90ED000AEA
:10422000B5EEC00AF1EE10FA35DD28EE080AC0EE50
:10423000090A1E48C0ED000A90ED000AF0EE000ADF
:1042400020EE200A1A4880ED000A184890ED000A76
:10425000184880ED000AB7EE000A18EE080AF0EEE2
:10426000000A20EE200AC0EE090A1348C0ED000A39
:104270009FED0C0A03F0ACFCF0EE000A60EE200AA1
:10428000B7EE000A00EEC80A08EE080AC0EE090AF6
:104290000A48C0ED000ABDEC068B10BD000000000E
:1042A000DA0F4940DA0F493FA0010020AC0100209D
:1042B000B0010020B4010020A4010020A8010020CA
:1042C00010B52DED068BF0EE409AF0EE608A9FED72
:1042D000370AB0EE40AA9FED350AB0EE408A9FED56
:1042E000330AB0EE409A89EEA80AB0EE40AA9FEDDC
:1042F000300AC0EE0A0AF0EE60AAB0EE6A0A03F0D5
:1043000085FEB0EE408A9FED2B0A03F061FCF0EED3
:10431000000A60EE200AB7EE000A00EE880A08EEF6
:10432000080AB0EE409A2448C0ED008A90ED000AD9
:10433000B5EEC00AF1EE10FA35DD28EE080AC0EE3F
:10434000090A1E48C0ED000A90ED000AF0EE000ACE
:1043500020EE200A1A4880ED000A184890ED000A65
:10436000184880ED000AB7EE000A18EE080AF0EED1
:10437000000A20EE200AC0EE090A1348C0ED000A28
:104380009FED0C0A03F024FCF0EE000A60EE200A18
:10439000B7EE000A00EEC80A08EE080AC0EE090AE5
:1043A0000A48C0ED000ABDEC068B10BD00000000FD
:1043B000DA0F4940DA0F493FC0010020CC0100204C
:1043C000D0010020D4010020C4010020C801002039
:1043D0007CB50446002506E0002001F0A3FC0DF8A2
:1043E0000500681CC5B2062DF6DB9DF801009DF89E
:1043F000001040EA012000B220809DF803009DF8E3
:10440000021040EA012000B260809DF805009DF88E
:10441000041040EA012000B2A0807CBD7CB50446B7
:10442000002506E0002001F07DFC0DF80500681C69
:10443000C5B2062DF6DB9DF801009DF8001040EA9C
:10444000012000B220809DF803009DF8021040EA90
:10445000012000B260809DF805009DF8041040EA3C
:10446000012000B2A0807CBD10B586B000241422CB
:10447000104901A8FCF775F8642005F01BFC7520B5
:1044800000F01CF80C49087000BF0DE001AA02EB17
:104490004402517801AA12F8140000F031F801200A
:1044A00005F008FC601CC4B20A2CEFDB002006B04B
:1044B00010BD000010EA00087B00002010B5044683
:1044C00000200B49086044F080000A490870084643
:1044D000007801F027FC44F0800001F023FC06493D
:1044E000087001200549C1F898020348007810BD02
:1044F000988242427E0000207D00002000804242DF
:1045000070B505460C4600200A49086005F07F009A
:10451000094908700846007801F004FC0648047058
:10452000007801F0FFFB01200449C1F89802002047
:1045300070BD0000988242427C0000200080424210
:1045400000BFFEE77047000070B5002100230F2276
:10455000C4781CB3174C246804F4E064C4F5E06428
:10456000C4F30721C1F10404E3B20A4144789C403A
:10457000E1B28478144021430C07210E0E4C0578DB
:104580006155047804F01F050124AC4005786D11D5
:10459000AD0005F1E025C5F8004109E0047804F01C
:1045A0001F050124AC40054D0678761145F82640DC
:1045B00070BD00000CED00E000E400E080E100E0F0
:1045C00002490143024A1160704700000000FA05E9
:1045D0000CED00E000B52DED108B87B0F0EE40DA69
:1045E000B0EE60EAB0EE41BAF0EE61EAF0EE42BA47
:1045F000B0EE62CAB1EE4B0A10EE100A0AF08CF966
:10460000B1EE4E0ACDE9020110EE100A0AF084F96B
:10461000CDE900019DED021B9DED000B03F01CF8A0
:104620008DED040B9DED040B51EC100B09F06EFBAE
:104630000CEE900AB1EE4B0A10EE100A0AF06CF97B
:10464000CDE902011DEE900A0AF066F9CDE90001FC
:104650009DED021B9DED000B02F0FEFF8DED040BA6
:104660009DED040B51EC100B09F050FB0DEE100A00
:10467000B0EE6C0A03F0ACFAB0EE408AB0EE6C0A11
:1046800003F0BEFBF0EE408AB0EE4D0A03F0A0FA54
:10469000F0EE409AB0EE4D0A03F0B2FBB0EE409A55
:1046A0002EEEA90A6BEEA80A00EE890A6CEE080A43
:1046B00000EE890A8DED060A2BEE880A0CEE680AD8
:1046C000F0EE40FADDED060AB1EE6F0A03F0C4F831
:1046D000B0EE40FAF6EE000A6CEEA00AB0EE600A08
:1046E00003F076FAB0EE408AF6EE000A6CEEA00A0D
:1046F000B0EE600A03F084FBF0EE408AF6EE000AAA
:104700006DEE200AB0EE600A03F062FAF0EE409A15
:10471000F6EE000A6DEE200AB0EE600A03F070FBC0
:10472000B0EE409AF6EE000A6FEE200AB0EE600A94
:1047300003F04EFAB0EE40AAF6EE000A6FEE200A41
:10474000B0EE600A03F05CFBF0EE40AA28EE290A06
:1047500020EE0A0A68EE890A00EEAA0A444880EDB3
:10476000000A28EEA90A20EE0A0A68EE090A00EEFD
:10477000EA0A404880ED000A28EE090A20EE0A0AFB
:1047800068EEA90A00EEAA0A3B4880ED000A28EE6E
:10479000290A20EE2A0A68EE890A00EECA0A37487A
:1047A00080ED000A324890ED000A20EE000A3448FD
:1047B00080ED000A2E4890ED000A2E48D0ED000A48
:1047C00020EE200A2F4880ED000A294890ED000ACB
:1047D0002948D0ED000A20EE200A2B4880ED000A7F
:1047E000234890ED000A2548D0ED000A20EE200A6B
:1047F000264880ED000A1F4890ED000A20EE000ACE
:10480000234880ED000A1B4890ED000A1A48D0EDBD
:10481000000A20EE200A1F4880ED000A154890ED9E
:10482000000A1648D0ED000A20EE200A1A4880ED52
:10483000000A114890ED000A20EE000A174880EDAA
:10484000000A0D4890ED000A0C48D0ED000A20EE59
:10485000200A134880ED000A084890ED000A20EE77
:10486000000A104880ED000A07B0BDEC108B00BDB7
:1048700074020020780200207C02002080020020C8
:1048800094020020980200209C020020A002002038
:10489000A4020020A8020020AC020020B0020020E8
:1048A000B4020020B802002000B52DED0C0B2DED58
:1048B000108B8BB0F0EE40BAB0EE60CAF0EE41CA99
:1048C000B0EE61DAB0EE42AAF0EE62AAF0EE439AE0
:1048D000B0EE638AF0EE448AF0EE45DAB0EE65BAE7
:1048E0009FEDFE0AB0EE40EA9FEDFC0AF0EE40EAD2
:1048F0009FEDFA0AB0EE40FAF948007880B9F0EE80
:10490000682AB0EE482AF0EE691AB1EE6A1AF1EEA2
:104910004A0AB1EE4D0AFFF75DFE0120F04908702A
:10492000F5EEC09AF1EE10FA09D1B5EEC08AF1EEBB
:1049300010FA04D1F5EEC08AF1EE10FA7ED069EEDD
:10494000A90A48EE080A48EEA80AB0EE600A06F086
:10495000F9FAB0EE409A29EE890AF0EE409A28EE74
:10496000090AB0EE408A28EE890AF0EE408ADD4856
:1049700090ED000AF6EE000A30EEC00ADA48D0EDFB
:10498000000A30EE600A20EE290AD848D0ED000A6D
:10499000D74890ED001A70EEC10A08EE200AD548FB
:1049A000D0ED000AD44890ED001A70EE810A08EEAE
:1049B000A00AF0EE000A20EE200A8DED0A0ACB488C
:1049C00090ED000ACA48D0ED000A30EE200A20EE31
:1049D000290ACA48D0ED000AB6EE001A71EE600A44
:1049E000C14890ED001A70EEC10A08EE200AC448D2
:1049F000D0ED000AC34890ED001A70EEC10A08EE2F
:104A0000A00AF0EE000A20EE200A8DED090AB0EEB1
:104A1000000A29EE800AB748D0ED000AB64890EDAA
:104A2000001A70EEC10A20EE200AF0EE000A68EECD
:104A3000200AB34890ED001AB24800E0B2E0D0ED91
:104A4000001A31EE211A00EE810AF0EE000A68EE3B
:104A5000A00AAA4890ED001AF6EE001A31EEC11A2B
:104A6000A048D0ED001A31EE611A00EE810AF0EE96
:104A700040FA9DED0A0A60EE000A9DED090A40EE3B
:104A8000000A10EE901A084609F046FFCDE9000131
:104A90009DED000B03F07CFA8DED020B9DED020BFA
:104AA00051EC100B09F032F90890CDED07FA8D4862
:104AB00090ED000AF6EE000A30EEC00A8A48D0ED0A
:104AC000000A70EE600A9DED080A20EE800A89480F
:104AD000D0ED000A884890ED001A70EEC10ADDEDB5
:104AE00007FA0FEEA00A8DED060A804890ED000A45
:104AF0007F48D0ED000A70EE600A9DED080A20EEB6
:104B0000800A8048D0ED000A7D4890ED001A70EED2
:104B1000810ADDED07FA0FEEA00A8DED050A764851
:104B200090ED000A7348D0ED000A70EE200A9DED6A
:104B3000080A20EE800A7148D0ED000AB6EE001A8D
:104B400071EE600A674890ED001A70EEC10ADDED63
:104B500007FA0FEEA00A8DED040A9DED040A28EE77
:104B6000000ADDED050A08EEE00A30EE0E0AB0EEAE
:104B700040EA9DED060A68EE800A9DED040A49EEC2
:104B8000C00A30EEAE0AF0EE40EA9DED050A69EE8D
:104B9000800A9DED060A48EE400A30EE8F0AB0EE1C
:104BA00040FA00BFB5EEC0DAF1EE10FA09D1B5EE69
:104BB000C0AAF1EE10FA04D1F5EEC0AAF1EE10FA97
:104BC0005AD06DEE0D0A4AEE0A0A4AEEAA0AB0EE73
:104BD000600A06F0B7F9B0EE409A2DEE090AB0EE81
:104BE00040DA2AEE090AB0EE40AA2AEE890AF0EE6F
:104BF00040AA404890ED000A3F48D0ED000A30EE50
:104C0000600AF0EE40FA3F4890ED000A3C48D0EDD3
:104C1000000A30EE200A8DED0A0A3B4890ED000AAA
:104C2000F6EE000A30EE600A2F48D0ED000A30EEB2
:104C3000200A8DED090A9DED090A6AEE000A9DED34
:104C40000A0A4AEEC00A30EE8E0AB0EE40EA6AEE78
:104C5000AF0A9DED090A4DEE400A30EEAE0AF0EEC5
:104C600040EA9DED0A0A2DEE000A0AEE6F0A30EEC8
:104C70000F0AB0EE40FA00BFB5EEC0EAF1EE10FA4E
:104C80007AD0F5EEC0EAF1EE10FA75D0B5EEC0FAC2
:104C9000F1EE10FA70D0F5EEC0DAF1EE10FA46DD62
:104CA0001A4890ED000A6DEE8E0A00EE8B0A80ED38
:104CB000000A90ED010A6DEEAE0A00EE8B0A80ED5F
:104CC000010A90ED020A6DEE8F0A00EE8B0A80ED6C
:104CD000020A90ED000A30EE2B0A19E000000000F5
:104CE000BC020020B0020020B8020020A802002070
:104CF000A0020020AC0200209C020020A4020020A0
:104D0000B40200209802002094020020D80C002059
:104D1000F0EE40BA90ED010A30EE0C0AB0EE40CA57
:104D200090ED020A30EE2C0AF0EE40CA0CE01FEDC6
:104D3000150AA64880ED000A1FED180A80ED010A49
:104D40001FED1A0A80ED020A9DED240AF0EE6B0AAF
:104D500040EE0E0AF0EE60BA9DED240AF0EE4C0A29
:104D600040EE2E0AB0EE60CA9DED240AF0EE6C0A09
:104D700040EE0F0AF0EE60CA954890ED000AB1EEE1
:104D8000400A20EE2B0A9348D0ED000A00EECC0A30
:104D90009148D0ED000A00EEEC0AF6EE000A20EE93
:104DA000200A8E4880ED000A8D4890ED000A20EE22
:104DB0002B0A8848D0ED000A00EEAC0A8648D0EDF8
:104DC000000A00EECC0AF6EE000A20EE200A854822
:104DD00080ED000A824890ED000A20EE0C0A7C4823
:104DE000D0ED000A00EEEC0A7B48D0ED000A00EEA0
:104DF000AB0AF6EE000A20EE200A7B4880ED000A9E
:104E0000774890ED000A20EE2C0A7148D0ED000A98
:104E100000EE8C0A6F48D0ED000A00EEEB0AF6EEC9
:104E2000000A20EE200A714880ED000A6C4890EDDF
:104E3000000A6A48D0ED000A0BEE200A684880EDAF
:104E4000000A634890ED000A6648D0ED000A0BEEB8
:104E5000200A5F4880ED000A5E4890ED000A624833
:104E6000D0ED000A0BEE200A5A4880ED000A5A489D
:104E700090ED000A5D48D0ED000A0BEE200A56487E
:104E800080ED000A5648D0ED000A60EEA00A5048B6
:104E900090ED001AD0ED001A41EE210A4D4890ED38
:104EA000001AD0ED001A41EE210A4B4890ED001A8D
:104EB000D0ED001A41EE210AB0EE600A06F042F889
:104EC000B0EE409A464890ED000A20EE090A80EDC7
:104ED000000A3F4890ED000A20EE090A80ED000A22
:104EE0003C4890ED000A20EE090A80ED000A3A489D
:104EF00090ED000A20EE090A80ED000A384890ED96
:104F0000000A20EE000A3A4880ED000A344890ED8D
:104F1000000A2F48D0ED000A20EE200A354880ED27
:104F2000000A2F4890ED000A2A48D0ED000A20EE32
:104F3000200A314880ED000A294890ED000A2648F1
:104F4000D0ED000A20EE200A2C4880ED000A20480F
:104F500090ED000A20EE000A294880ED000A1C4866
:104F600090ED000A1B48D0ED000A20EE200A2548EB
:104F700080ED000A164890ED000A1748D0ED000AAF
:104F800020EE200A204880ED000A124890ED000A29
:104F900020EE000A1D4880ED000A0E4890ED000A40
:104FA0000D48D0ED000A20EE200A194880ED000AD5
:104FB000094890ED000A20EE000A164880ED000A2C
:104FC0000BB0BDEC108B0CB000BD0000D80C002065
:104FD000780200207C020020800200208402002051
:104FE00074020020880200208C0200209002002021
:104FF00094020020980200209C020020A0020020C1
:10500000A4020020A8020020AC020020B002002070
:10501000B4020020B802002010B52DED088B044624
:10502000B0EE408AF0EE608A94ED010A84ED020A47
:1050300038EE680A84ED010A94ED030AB5EEC00A61
:10504000F1EE10FA27D094ED030A10EE101A08467C
:1050500009F062FC41EC190B94ED010A10EE101AF4
:10506000084609F059FC41EC1B0BB0EE4B0AF0EE80
:105070006B0A02F055FEB0EE40AAF0EE60AA53ECC7
:10508000192B51EC1A0B09F04FFA04D29FED200AAC
:10509000BDEC088B10BD94ED0A0AD4ED010A20EE98
:1050A000200A84ED070A94ED080AD4ED0B0A94ED6A
:1050B000011A00EE810A84ED080A94ED010AD4ED8C
:1050C000020A30EE600AD4ED0C0A20EE200A84EDCC
:1050D000090AD4ED060AB0EE600A04F1200003F0DC
:1050E00038FD94ED070AD4ED080A30EE200AD4ED1D
:1050F000090A30EE200A84ED0D0AD4ED0F0AB0EE55
:10510000600A04F1340003F024FD94ED0D0ABFE7BA
:10511000000000001CB50121802000F07DFB3C2038
:10512000009001208DF8040000208DF80600032077
:105130008DF8050001208DF8070069460E48FDF73F
:1051400007FB04210C48FDF770FB08210A48FDF716
:105150006CFB10210848FDF768FB20210648FDF78D
:1051600064FB002404E0204606F0DAF9601CC4B2B7
:10517000042CF8DB1CBD0000001C024010B52DED16
:10518000028BB0EE408A184890ED230AD0ED170A42
:1051900030EE600ADFED150A20EE200ADFED140A7A
:1051A00020EE200A134880ED000A1348D0ED000AD3
:1051B000B0EE480A1148FFF72FFF114880ED000AB2
:1051C0001048B0F9000001EE100AB8EEC11AF0EE76
:1051D000410A0A4890ED0D1AB0EE410A0A48FFF75D
:1051E0001BFFBDEC028B10BD400600209A9999BEB2
:1051F000E12E6542F0000020F80000208812002017
:105200001C0100200406002008120020B0EE401A05
:1052100090ED010A80ED020A31EE600A80ED010A8C
:10522000017801F00101E9B190ED010AD0ED031A16
:10523000B4EEE10AF1EE10FA03DB90ED030A80ED23
:10524000010A90ED010AD0ED031AF1EE611AB4EEF5
:10525000E10AF1EE10FA05D890ED030AB1EE400A2A
:1052600080ED010A0178C1F3800151B190ED050A8A
:10527000D0ED0B1A90ED012A01EE820A80ED050AAD
:1052800007E090ED050AD0ED011A30EE210A80ED1D
:10529000050A0178C1F34001E9B190ED050AD0EDAE
:1052A000061AB4EEE10AF1EE10FA03DB90ED060AFD
:1052B00080ED050A90ED050AD0ED061AF1EE611AAF
:1052C000B4EEE10AF1EE10FA05D890ED060AB1EE5F
:1052D000400A80ED050A90ED0D0A80ED0E0A90ED72
:1052E000050AD0ED0A1A90ED012A01EE820AD0EDEE
:1052F000011A90ED022A71EEC21A90ED0C2A02EE0C
:10530000210A80ED0D0A104991ED0D0AFEEE081AF2
:10531000B4EEE10AF1EE10FA04D8BEEE080A81ED0F
:105320000D0A0DE0084991ED0D0ADFED081AB4EE03
:10533000E10AF1EE10FA03DB9FED040A81ED0D0A9C
:1053400090ED0D0A70470000081400206666E63EE6
:1053500010B500231A4619461846FBF7A1FD002197
:105360000846FBF7E3FD00210846FBF72DFF002070
:10537000FBF75CFF00201D49087004F0C9FD9FED9C
:105380001C0A1C4880ED000A9FED190A80ED010AF5
:105390009FED170A80ED020A9FED150A80ED050AC0
:1053A0009FED130A80ED030A00201349087013498A
:1053B0000870134908700120124908600020124942
:1053C000086012490870124908609FED090A1148E7
:1053D00080ED000A104890ED380A104880ED000A70
:1053E00000200F49086005F03BFF10BDF5020020CA
:1053F00000000000F00C0020F0020020F10200206C
:10540000F202002038030020B4030020F302002041
:1054100090000020E800002040060020DC00002072
:10542000F802002010B504468D48007848B10020ED
:105430008C4908608C4908608C4908608C49086078
:1054400008E000208B4908608B4908608B490860A0
:105450008B4908608B484078032819D18048007830
:10546000B0B187480068401C85490860084600685C
:10547000052809DA6420604300B28349088009885E
:1054800088B2FBF7E3FC5CE005207D49086058E04A
:105490007C484078022819D171480078B0B177482B
:1054A0000068401C7549086008460068052809DA4C
:1054B0006420604300B274490880098888B2FBF711
:1054C000C5FC3EE005206D4908603AE06D48407833
:1054D000012819D162480078B0B167480068401CC3
:1054E0006549086008460068052809DA64206043B9
:1054F00000B265490880098888B2FBF7A7FC20E064
:1055000005205D4908601CE060480068B0F5FA6F4E
:1055100017D153480078A0B156480068401C55493F
:10552000086008460068052808DA41F2301056493C
:105530000880098888B2FBF789FC02E005204D4904
:10554000086050484078032819D145480078B0B920
:1055500047480068401C464908600846006805281E
:1055600009DA6420604300B247490880098888B29C
:10557000FBF76CFC73E005203D4908606FE0414893
:105580004078022819D136480078B0B93748006809
:10559000401C3649086008460068052809DA64207E
:1055A000604300B238490880098888B2FBF74EFC96
:1055B00055E005202D49086051E032484078012827
:1055C00019D127480078B0B927480068401C2649FF
:1055D000086008460068052809DA6420604300B2C4
:1055E00029490880098888B2FBF730FC37E005209C
:1055F0001D49086033E025480068B0F5FA6F18D1FE
:1056000017480078A8B917480068401C1549086079
:1056100008460068052808DA41F230101A49088067
:10562000098888B2FBF712FC19E005200D490860D3
:1056300015E017480068401C1549086008460068D6
:10564000052809DA6420604300B20F490880098800
:1056500088B2FBF7FBFB02E005200D49086010BD96
:105660002C030020180200201C0200202002002031
:1056700024020020040200200C020020100200205E
:105680001402002022090020F601002090000020D2
:10569000080200204D4890ED030ADFED4D0AB4EEFC
:1056A000600AF1EE10FA0ED14A48007828B19FED59
:1056B0004A0A4A4880ED000A87E09FED490A4748B8
:1056C00080ED000A81E0414890ED030ADFED450AD4
:1056D000B4EE600AF1EE10FA0ED13E48007828B11F
:1056E0009FED410A3D4880ED000A6EE09FED3F0AC4
:1056F0003A4880ED000A68E0344890ED030ADFED97
:105700003C0AB4EE600AF1EE10FA0ED1314800788E
:1057100028B19FED350A314880ED000A55E09FED34
:10572000350A2E4880ED000A4FE0284890ED030A24
:10573000DFED310AB4EE600AF1EE10FA0ED1254821
:10574000007828B19FED240A244880ED000A3CE04F
:105750009FED2A0A214880ED000A36E01B4890EDB3
:10576000030ADFED270AB4EE600AF1EE10FA0ED15B
:105770001848007828B19FED230A184880ED000AE8
:1057800023E09FED210A154880ED000A1DE00F4837
:1057900090ED030ADFED1D0AB4EE600AF1EE10FA97
:1057A0000ED10C48007828B19FED190A0B4880ED06
:1057B000000A0AE09FED170A084880ED000A04E09D
:1057C0009FED130A054880ED000A7047D4050020BC
:1057D00000003042E80200203333B33EFC010020D9
:1057E00085EBD13E00004442A470BD3E6666E63EB5
:1057F0000000584214AE073F00006C42F628DC3E21
:1058000000009E425C8FC23ECDCC0C3F0000C642E1
:105810003D0AD73E9A99193F29B1064A12680243B8
:10582000044B1A6004E0034A12688243014B1A6079
:10583000704700003038024029B1064A126802431E
:10584000044B1A6004E0034A12688243014B1A6059
:10585000704700004038024029B1064A12680243EE
:10586000044B1A6004E0034A12688243014B1A6039
:10587000704700002038024029B1064A12680243EE
:10588000044B1A6004E0034A12688243014B1A6019
:10589000704700004438024029B1064A12680243AA
:1058A000044B1A6004E0034A12688243014B1A60F9
:1058B0007047000024380240F0B500210022002487
:1058C000022500260223324F3F6807F00C0121B168
:1058D000042905D0082937D105E02E4F076036E0AE
:1058E0002D4F076033E02A4F3F1F3F68C7F38056B4
:1058F000274F3F1F3F6807F03F036EB1264FB7FBAE
:10590000F3F7DFF88CC0ACF1040CDCF800C0CCF38A
:10591000881C07FB0CF40CE01E4FB7FBF3F7DFF815
:1059200070C0ACF1040CDCF800C0CCF3881C07FBA1
:105930000CF4174F3F1F3F68C7F301477F1C7D00E2
:10594000B4FBF5F7076002E0124F076000BF00BF2D
:105950000F4F3F6807F0F0010909104F7A5C0768A4
:10596000D74047600A4F3F6807F4E051890A0B4F60
:105970007A5C4768D7408760054F3F6807F460410D
:10598000490B064F7A5C4768D740C760F0BD0000FE
:10599000083802400024F400001BB7001400002067
:1059A00000B597B001214548FFF736FF01211020CF
:1059B000FFF762FF072211464148FCF711FF8020E4
:1059C000159002208DF8580000208DF85A00032011
:1059D0008DF8590000208DF85B0015A93848FCF7B8
:1059E000B7FE384801F02CF9374811900020ADF887
:1059F0004800ADF84A004FF48060ADF84C00042038
:105A0000ADF84E000020ADF8500011A92D4801F06E
:105A1000CBFA01212B4801F0FDF801224021294851
:105A200001F004F944208DF8040001208DF80500F0
:105A300000208DF8060001208DF8070001A8FEF770
:105A400083FD00212148FCF703FB00BF1F480068CD
:105A500000F001000028F9D11C48FCF705FB4FF0CD
:105A6000006002901748001D039019480490002020
:105A7000059012200690002007904FF48060089057
:105A8000002009900A904FF480700B904FF4403042
:105A90000C9000200D900E900F90109002A90B48D2
:105AA000FCF7D2FB012210210848FCF7AFFB0121D3
:105AB0000648FCF7CDFA17B000BD00000200400018
:105AC0000004024000100140A086010088640240EA
:105AD0005007002010B5002052490860BB2000F09C
